:100000002AC0000050C00000BDC000004BC000006E
:1000100049C0000047C0000045C0000043C00000C8
:1000200041C000003FC000003DC000003BC00000D8
:1000300039C0000037C0000035C0000033C00000E8
:1000400031C000002FC000002DC000002BC00000F8
:1000500029C000008B0511241FBECFE5D8E0DEBF0C
:10006000CDBF11E0A0E6B0E0E4E7F8E202C0059001
:100070000D92A237B107D9F711E0A2E7B1E001C0B4
:100080001D92AB3BB107E1F710E0CBE2D0E004C03A
:100090002197FE010E94BE12CA32D107C9F7E1D0F2
:1000A0000C943814ADCF1F920F9200905F000F9206
:1000B0001124EF92FF920F932F933F934F935F93EF
:1000C0006F937F938F939F93AF93BF93EF93FF9320
:1000D000CF93DF93CDB7DEB72A97DEBFCDBF88E0E1
:1000E00090E0A0E0B0E089839A83AB83BC831D825B
:1000F00081E08E8380E690E098878F8385E690E0AC
:100100000E944D1249818E81882F90E0A0E0B0E0DE
:100110002F8138857901042F2D81AC01BD0182E743
:1001200091E00E944810882F90E09A8789878985FE
:100130009A85009729F489E790E00E944D1204C047
:1001400081E990E00E944D1200002A960FB6F894C3
:10015000DEBF0FBECDBFDF91CF91FF91EF91BF9179
:10016000AF919F918F917F916F915F914F913F914F
:100170002F910F91FF90EF900F9000925F000F90E2
:100180001F9018951F920F9200905F000F921124FC
:10019000EF92FF920F932F933F934F935F936F9341
:1001A0007F938F939F93AF93BF93EF93FF93CF93DF
:1001B000DF93CDB7DEB72A97DEBFCDBF83E089835B
:1001C00088E090E0A0E0B0E08A839B83AC83BD83AD
:1001D0001E828BEA90E098878F8385E690E00E94EC
:1001E0004D124A818981882F90E0A0E0B0E02F81F4
:1001F00038857901042F2E81AC01BD0182E791E0A1
:100200000E944810882F90E09A87898789859A856F
:10021000009729F481EB90E00E944D1204C082EC1B
:1002200090E00E944D1200002A960FB6F894DEBFAF
:100230000FBECDBFDF91CF91FF91EF91BF91AF91F5
:100240009F918F917F916F915F914F913F912F91EE
:100250000F91FF90EF900F9000925F000F901F9012
:100260001895EF92FF920F93CF93DF93CDB7DEB740
:10027000E8970FB6F894DEBF0FBECDBF1C821B827D
:100280008EED90E09E838D83F5D160E875E280E08D
:1002900090E00E94F1110E947F1088E390E020E13D
:1002A000FC01208381E390E0FC01108282E390E076
:1002B0002FEFFC0120838BE590E020ECFC012083F4
:1002C00085E590E02FE0FC01208378948AEE90E0B1
:1002D0000E944D1242E068E082E791E00E942A0FFE
:1002E000882F90E098878F838F819885009709F0F9
:1002F00077C087EF90E00E944D1280E090E0A8EC7C
:10030000B2E48F87988BA98BBA8B20E030E04AEF5C
:1003100054E46F85788989899A890E94D513DC0114
:10032000CB018B8B9C8BAD8BBE8B20E030E040E80B
:100330005FE36B897C898D899E890E94C412882322
:100340002CF481E090E0988F8F8B3FC020E03FEF4E
:100350004FE757E46B897C898D899E890E94D11370
:1003600018164CF520E030E040E251E46F857889C2
:1003700089899A890E94D513DC01CB01BC01CD018A
:100380000E943013DC01CB01988F8F8B0FC088EC5B
:1003900090E09A8F898F898D9A8D0197F1F79A8FC6
:1003A000898F8F89988D0197988F8F8B8F89988DE2
:1003B000009769F794C06B897C898D899E890E941A
:1003C0003013DC01CB01988F8F8B8F89988D9C8F98
:1003D0008B8F8B8D9C8D0197F1F79C8F8B8F7FC0BE
:1003E0008F8198858130910509F079C08BE091E08B
:1003F0000E944D1280E090E0A8ECB2E48D8F9E8FB9
:10040000AF8FB8A320E030E04AEF54E46D8D7E8DCD
:100410008F8D98A10E94D513DC01CB0189A39AA3EB
:10042000ABA3BCA320E030E040E85FE369A17AA180
:100430008BA19CA10E94C41288232CF481E090E03F
:100440009EA38DA33FC020E03FEF4FE757E469A193
:100450007AA18BA19CA10E94D11318164CF520E023
:1004600030E040E251E46D8D7E8D8F8D98A10E9429
:10047000D513DC01CB01BC01CD010E943013DC019E
:10048000CB019EA38DA30FC088EC90E098A78FA30B
:100490008FA198A50197F1F798A78FA38DA19EA191
:1004A00001979EA38DA38DA19EA1009769F714C00B
:1004B00069A17AA18BA19CA10E943013DC01CB0120
:1004C0009EA38DA38DA19EA19AA789A789A59AA570
:1004D0000197F1F79AA789A78FEF9FEFBFC082E23C
:1004E00091E00E944D1282E791E00E94A00F1986D0
:1004F00082E08A8788E090E0A0E0B0E08B879C876C
:10050000AD87BE8781E090E0CAD09C838B83298130
:100510003A818B819C814AE050E0B901E8D19A830D
:10052000898389819A810E944D124B858A85882F03
:1005300090E0A0E0B0E029813A817901042F29857B
:10054000AC01BD0182E791E00E944810882F90E045
:1005500098878F838F819885009729F485E391E0B0
:100560000E944D1204C084E591E00E944D128FE676
:1005700091E00E944D1280E090E0AAE7B4E48BA7DE
:100580009CA7ADA7BEA720E030E04AEF54E46BA5DE
:100590007CA58DA59EA50E94D513DC01CB018FA75C
:1005A00098ABA9ABBAAB20E030E040E85FE36FA5C1
:1005B00078A989A99AA90E94C41288232CF481E001
:1005C00090E09CAB8BAB3FC020E03FEF4FE757E4A0
:1005D0006FA578A989A99AA90E94D11318164CF57C
:1005E00020E030E040E251E46BA57CA58DA59EA5FE
:1005F0000E94D513DC01CB01BC01CD010E94301358
:10060000DC01CB019CAB8BAB0FC088EC90E09EABC8
:100610008DAB8DA99EA90197F1F79EAB8DAB8BA9F0
:100620009CA901979CAB8BAB8BA99CA9009769F700
:1006300014C06FA578A989A99AA90E943013DC017A
:10064000CB019CAB8BAB8BA99CA998AF8FAB8FA92F
:1006500098AD0197F1F798AF8FAB45CFE8960FB6FD
:10066000F894DEBF0FBECDBFDF91CF910F91FF9009
:10067000EF900895CF93DF93CDB7DEB78AE390E094
:10068000FC01108286E290E027E8FC01208387E2EB
:1006900090E020E4FC012083DF91CF910895CF9377
:1006A000DF93CDB7DEB7A2970FB6F894DEBF0FBECB
:1006B000CDBF98A38F8F87E290E027E230E0F90169
:1006C0002081322F2F8D2770232BFC01208386E27F
:1006D00090E026E230E0F90120812064FC012083D3
:1006E000000086E290E0FC018081882F90E080711C
:1006F000992721E0009709F020E0222391F780E07C
:1007000090E0A8ECB2E48F839887A987BA872BEA98
:100710003AEA4AE250E46F81788589859A850E9499
:10072000D513DC01CB018B879C87AD87BE8720E08A
:1007300030E040E85FE36B857C858D859E850E9477
:10074000C41288231CF481E08F8791C020E030E040
:100750004FE753E46B857C858D859E850E94D11380
:1007600018160CF07BC020E030E04AE754E46F81BB
:10077000788589859A850E94C812DC01CB01888B17
:10078000998BAA8BBB8B20E030E04AEF54E4688958
:1007900079898A899B890E94D513DC01CB018C8BD6
:1007A0009D8BAE8BBF8B20E030E040E85FE36C892F
:1007B0007D898E899F890E94C41288232CF481E050
:1007C00090E0998F888F3FC020E03FEF4FE757E4DC
:1007D0006C897D898E899F890E94D11318164CF5EA
:1007E00020E030E040E251E4688979898A899B8978
:1007F0000E94D513DC01CB01BC01CD010E94301356
:10080000DC01CB01998F888F0FC088EC90E09B8F23
:100810008A8F8A8D9B8D0197F1F79B8F8A8F888DA8
:10082000998D0197998F888F888D998D009769F799
:1008300024C06C897D898E899F890E943013DC01D8
:10084000CB01998F888F888D998D9D8F8C8F8C8D02
:100850009D8D0197F1F79D8F8C8F0FC06B857C85E7
:100860008D859E850E943013DC01CB018F878F859B
:100870008E8F8E8D8A95F1F78E8F84E290E0FC0149
:100880008081882F90E09A83898385E290E0FC0143
:100890008081882F90E0982F88279C838B832B81E1
:1008A0003C8189819A81820F931F9C838B832B814A
:1008B0003C81C901880F991F880F991F820F931FD0
:1008C0009E838D838D819E812AE030E0B9010E9454
:1008D0007512CB019E838D838D819E81A2960FB66A
:1008E000F894DEBF0FBECDBFDF91CF910895CF93B7
:1008F000DF93CDB7DEB763970FB6F894DEBF0FBEB8
:10090000CDBF9B878A877D876C875F874E871A82DA
:1009100019821C821B828A859B850097D1F489816C
:100920009A819C012F5F3F4F3A8329839C018C85DC
:100930009D85820F931F20E3FC01208389819A818A
:100940002C853D85820F931FFC0110828C859D852F
:10095000B9C08A859B85992384F48E859F858A30CA
:10096000910559F481E090E09C838B838A859B8577
:100970009195819591099B878A872BC08A859B8554
:100980002E853F85B9010E9475129E838D838981D2
:100990009A819C012F5F3F4F3A8329839C018C856C
:1009A0009D85820F931F2D813E812A3031051CF0D9
:1009B0002D81295A02C02D81205DFC0120838A856A
:1009C0009B852E853F85B9010E947512CB019B87BF
:1009D0008A878A859B85009789F68B819C81009701
:1009E00079F089819A819C012F5F3F4F3A83298357
:1009F0009C018C859D85820F931F2DE2FC01208335
:100A000089819A812C853D85820F931FFC0110827C
:100A100089819A8198878F831A8219823BC0898144
:100A20009A812C853D85820F931FFC0180818987E7
:100A300089819A812C853D85820F931F2F8138856E
:100A4000A9014150510929813A81BA01621B730BF6
:100A50009B01A9012C853D85240F351FF9012081BB
:100A6000FC0120838F8198859C0121503109898167
:100A70009A81A901481B590BCA019C018C859D854F
:100A8000820F931F2985FC01208389819A81019619
:100A90009A8389838F81988599230CF40196959583
:100AA00087959C0189819A81821793070CF4B7CFAF
:100AB0008F8198852C853D85820F931FFC011082C4
:100AC0008C859D8563960FB6F894DEBF0FBECDBFB3
:100AD000DF91CF910895CF93DF9300D000D0CDB7B1
:100AE000DEB79A8389837C836B8389819A81813085
:100AF000910551F48B819C818F3F2FEF920721F458
:100B000082E791E00E94F90E0F900F900F900F90E6
:100B1000DF91CF910895CF93DF93CDB7DEB76FEF1D
:100B20007FEF81E090E0D7DFDF91CF910895CF9301
:100B3000DF93CDB7DEB76E970FB6F894DEBF0FBE6A
:100B4000CDBF9E8F8D8F88E390E028E330E0F901E0
:100B500020812F7EFC01208380E090E0A0E0B0E4C3
:100B600089839A83AB83BC8320E030E04AEF54E46E
:100B700069817A818B819C810E94D513DC01CB0134
:100B80008D839E83AF83B88720E030E040E85FE349
:100B90006D817E818F8198850E94C41288232CF4F8
:100BA00081E090E09A8789873FC020E03FEF4FE7E0
:100BB00057E46D817E818F8198850E94D11318162C
:100BC0004CF520E030E040E251E469817A818B818C
:100BD0009C810E94D513DC01CB01BC01CD010E9498
:100BE0003013DC01CB019A8789870FC088EC90E035
:100BF0009C878B878B859C850197F1F79C878B87DA
:100C000089859A8501979A87898789859A8500972A
:100C100069F714C06D817E818F8198850E943013A1
:100C2000DC01CB019A87898789859A859E878D8784
:100C30008D859E850197F1F79E878D8780EC0E94B8
:100C4000161188E390E028E330E0F901208120616B
:100C5000FC01208380E090E0A0E8BFE38F87988BC1
:100C6000A98BBA8B20E030E04AEF54E46F85788995
:100C700089899A890E94D513DC01CB018B8B9C8BCF
:100C8000AD8BBE8B20E030E040E85FE36B897C8970
:100C90008D899E890E94C41288232CF481E090E003
:100CA000988F8F8B3FC020E03FEF4FE757E46B8971
:100CB0007C898D899E890E94D11318164CF520E0FD
:100CC00030E040E251E46F85788989899A890E94F1
:100CD000D513DC01CB01BC01CD010E943013DC0136
:100CE000CB01988F8F8B0FC088EC90E09A8F898F03
:100CF000898D9A8D0197F1F79A8F898F8F89988DB9
:100D00000197988F8F8B8F89988D009769F714C002
:100D10006B897C898D899E890E943013DC01CB010F
:100D2000988F8F8B8F89988D9C8F8B8F8B8D9C8DBF
:100D30000197F1F79C8F8B8F6E960FB6F894DEBFFC
:100D40000FBECDBFDF91CF910895CF93DF93CDB785
:100D5000DEB7A0970FB6F894DEBF0FBECDBF9F8F52
:100D60008E8F68A388E390E028E330E0F9012081CA
:100D70002F7EFC01208380E090E0A0E0B0E48A8335
:100D80009B83AC83BD8320E030E04AEF54E46A816A
:100D90007B818C819D810E94D513DC01CB018E83E8
:100DA0009F83A887B98720E030E040E85FE36E8149
:100DB0007F81888599850E94C41288232CF481E064
:100DC00090E09B878A873FC020E03FEF4FE757E4E2
:100DD0006E817F81888599850E94D11318164CF504
:100DE00020E030E040E251E46A817B818C819D818A
:100DF0000E94D513DC01CB01BC01CD010E94301350
:100E0000DC01CB019B878A870FC088EC90E09D872F
:100E10008C878C859D850197F1F79D878C878A85C6
:100E20009B8501979B878A878A859B85009769F7B1
:100E300014C06E817F81888599850E943013DC0102
:100E4000CB019B878A878A859B859F878E878E8526
:100E50009F850197F1F79F878E8783E00E94161187
:100E600088A10E94161180E090E0A0E2B1E4888B96
:100E7000998BAA8BBB8B20E030E04AEF54E4688961
:100E800079898A899B890E94D513DC01CB018C8BDF
:100E90009D8BAE8BBF8B20E030E040E85FE36C8938
:100EA0007D898E899F890E94C41288232CF481E059
:100EB00090E0998F888F3FC020E03FEF4FE757E4E5
:100EC0006C897D898E899F890E94D11318164CF5F3
:100ED00020E030E040E251E4688979898A899B8981
:100EE0000E94D513DC01CB01BC01CD010E9430135F
:100EF000DC01CB01998F888F0FC088EC90E09B8F2D
:100F00008A8F8A8D9B8D0197F1F79B8F8A8F888DB1
:100F1000998D0197998F888F888D998D009769F7A2
:100F200014C06C897D898E899F890E943013DC01F1
:100F3000CB01998F888F888D998D9D8F8C8F8C8D0B
:100F40009D8D0197F1F79D8F8C8F80E00E94161187
:100F5000898388E390E028E330E0F9012081206173
:100F6000FC0120838981A0960FB6F894DEBF0FBEE6
:100F7000CDBFDF91CF910895CF93DF9300D000D004
:100F8000CDB7DEB79A8389836B834C8388E390E087
:100F900028E330E0F90120812F7EFC01208382E0EC
:100FA0000E9416118B810E9416118C810E941611CD
:100FB00088E390E028E330E0F90120812061FC0122
:100FC00020830F900F900F900F90DF91CF91089595
:100FD000CF93DF93CDB7DEB727970FB6F894DEBF78
:100FE0000FBECDBF9B838A836C835E834D832F832B
:100FF00088E390E028E330E0F90120812F7EFC01B6
:10100000208382E00E9416118C810E9416111982A1
:101010000EC08981882F90E02D813E81820F931F21
:10102000FC0180810E94161189818F5F89839981DB
:101030008F81981770F388E390E028E330E0F9019E
:1010400020812061FC01208327960FB6F894DEBF33
:101050000FBECDBFDF91CF910895CF93DF9300D026
:1010600000D01F92CDB7DEB79A8389836B834C8300
:101070002D8388E390E028E330E0F90120812F7E82
:10108000FC01208385E00E9416118B810E941611BD
:101090008C810E9416118D810E94161188E390E0C8
:1010A00028E330E0F90120812061FC0120830F90CA
:1010B0000F900F900F900F90DF91CF910895CF93E5
:1010C000DF9300D000D0CDB7DEB79B838A836C83DB
:1010D0008A819B812C8140EE6FE0BFDF8A819B81FA
:1010E0006FE033DE89838981807E898399818C8159
:1010F000981711F480E001C081E00F900F900F90DD
:101100000F90DF91CF9108950F931F93CF93DF93AB
:10111000CDB7DEB7CF54D1090FB6F894DEBF0FBEFE
:10112000CDBF9E01245B3F4FF90191838083CE01A7
:10113000825B9F4FFC016083CE01815B9F4FFC016E
:10114000408381E08983CE01825B9F4FFC018081D7
:10115000882F90E08A30910511F18B3091053CF495
:101160008830910571F08930910591F02FC08C3055
:10117000910509F18C309105C4F08D30910509F18C
:1011800025C081E08A8384EB8B8386E08C8320C03A
:1011900081E08A8381EB8B8385E08C8319C01A827E
:1011A00084EB8B8386E08C8313C01A8281EB8B8364
:1011B00085E08C830DC01A8280E98B8382E08C836A
:1011C00007C01A8280E88B831C8202C0198200004B
:1011D0008981882309F4D9C2CE01845B9F4FFC0129
:1011E000808191814A816AE2C7DE80E090E0A0E8D8
:1011F000B0E48E839F83A887B98720E030E04AEF70
:1012000054E46E817F81888599850E94D513DC0125
:10121000CB018A879B87AC87BD8720E030E040E820
:101220005FE36A857B858C859D850E94C412882337
:101230002CF481E090E09F878E873FC020E03FEF55
:101240004FE757E46A857B858C859D850E94D11385
:1012500018164CF520E030E040E251E46E817F81C9
:10126000888599850E94D513DC01CB01BC01CD0195
:101270000E943013DC01CB019F878E870FC088EC62
:1012800090E0998B888B888999890197F1F7998BE0
:10129000888B8E859F8501979F878E878E859F85FA
:1012A000009769F714C06A857B858C859D850E94AF
:1012B0003013DC01CB019F878E878E859F859B8BAA
:1012C0008A8B8A899B890197F1F79B8B8A8BCE0148
:1012D000845B9F4FFC01808191814B8169E24CDEF0
:1012E00080E090E0A0E8B0E48C8B9D8BAE8BBF8B50
:1012F00020E030E04AEF54E46C897D898E899F8933
:101300000E94D513DC01CB01888F998FAA8FBB8FE8
:1013100020E030E040E85FE3688D798D8A8D9B8D19
:101320000E94C41288232CF481E090E09D8F8C8F62
:101330003FC020E03FEF4FE757E4688D798D8A8DFD
:101340009B8D0E94D11318164CF520E030E040E24E
:1013500051E46C897D898E899F890E94D513DC01B7
:10136000CB01BC01CD010E943013DC01CB019D8F6C
:101370008C8F0FC088EC90E09F8F8E8F8E8D9F8D0D
:101380000197F1F79F8F8E8F8C8D9D8D01979D8F8B
:101390008C8F8C8D9D8D009769F714C0688D798D29
:1013A0008A8D9B8D0E943013DC01CB019D8F8C8F29
:1013B0008C8D9D8D99A388A388A199A10197F1F7A0
:1013C00099A388A3CE01845B9F4FFC01808191810A
:1013D0004C8168E2D1DD80E090E0A0E8B0E48AA32F
:1013E0009BA3ACA3BDA320E030E04AEF54E46AA184
:1013F0007BA18CA19DA10E94D513DC01CB018EA302
:101400009FA3A8A7B9A720E030E040E85FE36EA162
:101410007FA188A599A50E94C41288232CF481E09D
:1014200090E09BA78AA73FC020E03FEF4FE757E43B
:101430006EA17FA188A599A50E94D11318164CF51D
:1014400020E030E040E251E46AA17BA18CA19DA1A3
:101450000E94D513DC01CB01BC01CD010E943013E9
:10146000DC01CB019BA78AA70FC088EC90E09DA769
:101470008CA78CA59DA50197F1F79DA78CA78AA5A0
:101480009BA501979BA78AA78AA59BA5009769F7AB
:1014900014C06EA17FA188A599A50E943013DC011C
:1014A000CB019BA78AA78AA59BA59FA78EA78EA5E0
:1014B0009FA50197F1F79FA78EA7CE01845B9F4F51
:1014C000FC01808191816AE240DC8D8381E02D8185
:1014D0009A81291709F080E0882309F456C180E039
:1014E00090E0A0E8B0E488AB99ABAAABBBAB20E03E
:1014F00030E04AEF54E468A979A98AA99BA90E941F
:10150000D513DC01CB018CAB9DABAEABBFAB20E008
:1015100030E040E85FE36CA97DA98EA99FA90E94F5
:10152000C41288232CF481E090E099AF88AF3FC0CB
:1015300020E03FEF4FE757E46CA97DA98EA99FA952
:101540000E94D11318164CF520E030E040E251E43F
:1015500068A979A98AA99BA90E94D513DC01CB01AE
:10156000BC01CD010E943013DC01CB0199AF88AFE3
:101570000FC088EC90E09BAF8AAF8AAD9BAD01971E
:10158000F1F79BAF8AAF88AD99AD019799AF88AF5E
:1015900088AD99AD009769F714C06CA97DA98EA993
:1015A0009FA90E943013DC01CB0199AF88AF88ADB1
:1015B00099AD9DAF8CAF8CAD9DAD0197F1F79DAF0F
:1015C0008CAFCE01845B9F4FFC018081918169E2E9
:1015D000BCDB8D8381E02D819B81291709F080E0A0
:1015E000882309F4D2C09E01225C3F4F80E090E046
:1015F000A0E8B0E4F90180839183A283B3838E01D4
:101600000E5B1F4FCE01CE9620E030E04AEF54E44F
:10161000FC0160817181828193810E94D513DC017C
:10162000CB01F80180839183A283B383CE018E5BCB
:101630009F4F20E030E040E85FE3FC016081718172
:1016400082819381A1D788234CF4CE018A5B9F4F7E
:1016500021E030E0FC01318320836AC0CE018E5B43
:101660009F4F20E03FEF4FE757E4FC01608171811D
:10167000828193810E94D11318160CF048C0CE01CC
:10168000CE9620E030E040E251E4FC0160817181BF
:10169000828193810E94D513DC01CB018E010A5B0C
:1016A0001F4FBC01CD01DCD7DC01CB01F8019183D8
:1016B000808324C0CE01885B9F4F28EC30E0FC0182
:1016C00031832083CE01885B9F4FFC018081918113
:1016D0000197F1F79E01285B3F4FF90191838083C9
:1016E000CE018A5B9F4F9E012A5B3F4FF90120810B
:1016F000318121503109FC0131832083CE018A5B85
:101700009F4FFC01808191810097A1F62BC08E0133
:101710000A5B1F4FCE018E5B9F4FFC016081718180
:10172000828193819DD7DC01CB01F8019183808375
:10173000CE01865B9F4F9E012A5B3F4FF9012081BE
:101740003181FC0131832083CE01865B9F4FFC01F8
:10175000808191810197F1F79E01265B3F4FF9014E
:1017600091838083CE01845B9F4FFC0180819181B6
:1017700068E2EBDA8D8381E02D819C81291709F0E5
:1017800080E0882311F080E001C081E0C15BDF4F81
:101790000FB6F894DEBF0FBECDBFDF91CF911F9182
:1017A0000F9108950F931F93CF93DF93CDB7DEB7BB
:1017B00060970FB6F894DEBF0FBECDBF988B8F87B2
:1017C0001D8281E08E831F82188619861A861B86E9
:1017D0001C861D861E868F819885A985BA85EF8512
:1017E000F8898C019D014E8160E2CF01C6D18F81C5
:1017F0009885A985BA85EF85F8898C019D014E8170
:1018000064E2CF01BAD18B859C85AD85BE85EF851D
:10181000F8898C019D014E8160E0CF01AED18B85AE
:101820009C85AD85BE85EF85F8898C019D014D8134
:1018300064E0CF01A2D18B859C85AD85BE85EF8507
:10184000F8898C019D014E8168E0CF0196D18B858E
:101850009C85AD85BE85EF85F8898C019D014D8104
:1018600060E1CF018AD18B859C85AD85BE85EF85F2
:10187000F8898C019D014E8164E1CF017ED18B8579
:101880009C85AD85BE85EF85F8898C019D014D81D4
:1018900068E1CF0172D180E38A8380E48B8380E5A5
:1018A0008C8319821BC08F85988940E06A8164DB34
:1018B0008F85988940E06B815FDB8F85988940E058
:1018C0006C815ADB8A818F5F8A838B818F5F8B83E8
:1018D0008C818F5F8C8389818F5F898389818E3032
:1018E00010F38F85988940E060E646DB8F85988904
:1018F00040E060E741DB60960FB6F894DEBF0FBEB4
:10190000CDBFDF91CF911F910F910895CF93DF93BA
:10191000CDB7DEB7A1970FB6F894DEBF0FBECDBF2F
:101920009F8F8E8F68A349A38FEF89838E8D9F8DA4
:10193000FED88E8D9F8D60E8C2DB898380E090E0C9
:10194000A0E2B1E48A839B83AC83BD8320E030E0D6
:101950004AEF54E46A817B818C819D8126D7DC012A
:10196000CB018E839F83A887B98720E030E040E8D1
:101970005FE36E817F818885998506D688232CF464
:1019800081E090E09B878A873BC020E03FEF4FE7F4
:1019900057E46E817F818885998503D718163CF5B9
:1019A00020E030E040E251E46A817B818C819D81BE
:1019B000FCD6DC01CB01BC01CD0152D6DC01CB0150
:1019C0009B878A870FC088EC90E09D878C878C85E9
:1019D0009D850197F1F79D878C878A859B85019767
:1019E0009B878A878A859B85009769F713C06E81DC
:1019F0007F818885998534D6DC01CB019B878A87D6
:101A00008A859B859F878E878E859F850197F1F7B5
:101A10009F878E878E8D9F8D6EE097D98983898170
:101A2000807E89838981803811F08FEF9DC08FEF90
:101A300089838E8D9F8D49A168A166DB8983898109
:101A4000813011F48FEF90C08981882309F08BC019
:101A50008E8D9F8DA7DE8E8D9F8D43E06BE28CDA9D
:101A60008E8D9F8D60E02BDB898380E090E0A8EC79
:101A7000B2E4888B998BAA8BBB8B20E030E04AEFD5
:101A800054E4688979898A899B898FD6DC01CB01E6
:101A90008C8B9D8BAE8BBF8B20E030E040E85FE30A
:101AA0006C897D898E899F896FD588232CF481E08C
:101AB00090E0998F888F3BC020E03FEF4FE757E4DD
:101AC0006C897D898E899F896CD618163CF520E03B
:101AD00030E040E251E4688979898A899B8965D63A
:101AE000DC01CB01BC01CD01BBD5DC01CB01998F61
:101AF000888F0FC088EC90E09B8F8A8F8A8D9B8D9A
:101B00000197F1F79B8F8A8F888D998D0197998F17
:101B1000888F888D998D009769F713C06C897D89AE
:101B20008E899F899DD5DC01CB01998F888F888D07
:101B3000998D9D8F8C8F8C8D9D8D0197F1F79D8F49
:101B40008C8F8E8D9F8D40E06FE016DA8E8D9F8D8D
:101B50006EE0FBD889838981807E8983898188238F
:101B600011F480E001C08FEFA1960FB6F894DEBFAC
:101B70000FBECDBFDF91CF9108950F931F93CF93E9
:101B8000DF93CDB7DEB72E970FB6F894DEBF0FBE4A
:101B9000CDBF98878F8369874A870B871C872D87DE
:101BA0003E878B859C859A8389838A85813051F510
:101BB00089818E8389819A81892F99278D838B854D
:101BC0009C85AD85BE85CD01AA27BB279A838983D5
:101BD000898183708C839C8189818C71880F880FA7
:101BE000880F890F8C838C8188608C8389819A818E
:101BF00096958795929582958F7089279F708927F2
:101C00008B8310C089819A81969587959695879543
:101C1000969587958B8389818295880F807E8C83AA
:101C20001E821D82AE014D5F5F4F8F81988524E03B
:101C30006985CED92E960FB6F894DEBF0FBECDBF04
:101C4000DF91CF911F910F9108950F931F93CF9321
:101C5000DF9300D000D0CDB7DEB79B838A836C833F
:101C60008C8189838A819B81FC0125818A819B816A
:101C7000AC014A5F5F4F898135E0380F8A819B81D3
:101C8000632FA6D98A819B818A5B9F4FFC0180814B
:101C9000813051F48A819B81FC018581282F206449
:101CA0008A819B81FC0125838A819B81FC0135818E
:101CB000898124E0280F8A819B81432F622F5CD980
:101CC0008A819B81FC0181819281A381B4812A81D7
:101CD0003B81F9014081EA81FB818C019D01698191
:101CE000CF014BDF0F900F900F900F90DF91CF91AE
:101CF0001F910F910895CF93DF9300D000D01F92D2
:101D0000CDB7DEB79B838A836C838C813FEF380F1E
:101D10008A819B8128E048E0632F9FD98C812FEF37
:101D2000280F8A819B81622F10D8898389818870CE
:101D300089830F900F900F900F900F90DF91CF91AC
:101D40000895CF93DF93CDB7DEB72A970FB6F894F7
:101D5000DEBF0FBECDBF98878F837A8769878FEFED
:101D60008A8380E38C8380E48D8380E58E8382E0A8
:101D70008A8389859A85FC01108219822DC0898108
:101D8000882F90E09E012C5F3F4F820F931FFC0134
:101D900020818F819885622F0E94A5068B838B817D
:101DA000882F90E088709927009799F48981882F6F
:101DB00090E09E012C5F3F4F820F931FFC018081BA
:101DC00021E0280F89859A85FC0120831A828A8167
:101DD00007C089818F5F89838981833080F28A81FE
:101DE0002A960FB6F894DEBF0FBECDBFDF91CF911C
:101DF0000895CF93DF9300D0CDB7DEB79A83898360
:101E000089819A81FC01108289819A81FC01118269
:101E100012821382148289819A8120E4FC01258335
:101E200089819A818A5B9F4F2FEFFC0120838981F2
:101E30009A81895B9F4F2FEFFC01208389819A81D2
:101E4000885B9F4F24E0FC0120830F900F90DF916F
:101E5000CF910895CF93DF9300D000D01F92CDB7DC
:101E6000DEB79B838A836C834D838A819B814D81FE
:101E70006C814CDD89838981882311F480E001C065
:101E800081E00F900F900F900F900F90DF91CF9106
:101E90000895EF92FF920F93CF93DF93CDB7DEB704
:101EA0002C970FB6F894DEBF0FBECDBF9C838B83FB
:101EB0004D835E836F83788729870A87FC86EB864C
:101EC0008B819C812985FC0120832B813C818D8124
:101ED0009E81AF81B885F90181839283A383B48306
:101EE0008B819C812A85FC0125831A82198216C068
:101EF00089819A812B853C85820F931FFC0140814B
:101F00002B813C8189819A81820F931F0696FC0167
:101F1000408389819A8101969A83898389819A81F4
:101F2000803491052CF380E02C960FB6F894DEBF38
:101F30000FBECDBFDF91CF910F91FF90EF9008952D
:101F4000CF93DF9300D000D0CDB7DEB79C838B83D7
:101F50008B819C81FC0111821282138214828B81FD
:101F60009C8128E0FC0125838B819C81FC011082EF
:101F70008B819C818A5B9F4FFC0110828B819C81AD
:101F8000895B9F4FFC0110821A8219820EC02B813F
:101F90003C8189819A81820F931F0696FC011082F1
:101FA00089819A8101969A8389838B819C81FC0126
:101FB0008581282F30E089819A81821793073CF32D
:101FC00080E00F900F900F900F90DF91CF910895C8
:101FD000CF93DF93CDB7DEB727970FB6F894DEBF68
:101FE0000FBECDBF9F838E831A8219829E012B5F05
:101FF0003F4F8E819F81B901A4DE8B8389819A81B5
:1020000001969A8389838B81823029F489819A8110
:102010008233910558F389819A818233910511F4B5
:1020200086E02DC01A8219822D818E819F81622FB8
:102030000CDE2D818E819F81622F5DDE89819A81E8
:1020400001969A8389838D812FEF280F8E819F813E
:10205000622F0E94A5068C838C8188708C838C8172
:10206000882329F089819A818233910538F3898107
:102070009A818233910511F487E001C080E02796B0
:102080000FB6F894DEBF0FBECDBFDF91CF9108959C
:10209000EF92FF920F93CF93DF93CDB7DEB72B97DD
:1020A0000FB6F894DEBF0FBECDBF9B838A834C83EF
:1020B0005D836E837F8328870987FB86EA862A856E
:1020C0003B858C819D81AE81BF81EA81FB81790155
:1020D00009852885AC01BD01CF01DBDE8A819B81AA
:1020E00077DF898389812B960FB6F894DEBF0FBE08
:1020F000CDBFDF91CF910F91FF90EF900895CF93D7
:10210000DF93CDB7DEB72E970FB6F894DEBF0FBEC4
:10211000CDBF87E390E020EBFC01208388E390E0D3
:1021200028E330E0F90120812061FC01208380E078
:1021300090E0A0EAB0E489839A83AB83BC8320E07B
:1021400030E04AEF54E469817A818B819C812DD300
:10215000DC01CB018D839E83AF83B88720E030E024
:1021600040E85FE36D817E818F8198850DD2882361
:102170002CF481E090E09A8789873BC020E03FEF14
:102180004FE757E46D817E818F8198850AD31816B9
:102190003CF520E030E040E251E469817A818B81B6
:1021A0009C8103D3DC01CB01BC01CD0159D2DC0100
:1021B000CB019A8789870FC088EC90E09C878B873A
:1021C0008B859C850197F1F79C878B8789859A85FC
:1021D00001979A87898789859A85009769F713C03F
:1021E0006D817E818F8198853BD2DC01CB019A87FE
:1021F000898789859A859E878D878D859E8501979C
:10220000F1F79E878D878DE290E021E5FC01208328
:102210008AE390E02FEFFC0120832E960FB6F8940E
:10222000DEBF0FBECDBFDF91CF910895CF93DF9377
:10223000CDB7DEB769970FB6F894DEBF0FBECDBF3E
:10224000898F80E090E0A0EAB0E489839A83AB8331
:10225000BC832BEA3AEA4AE250E469817A818B81B5
:102260009C81A3D2DC01CB018D839E83AF83B88791
:1022700020E030E040E85FE36D817E818F819885CA
:1022800083D188231CF481E0898788C020E030E076
:102290004FE753E46D817E818F81988582D2181635
:1022A0000CF074C020E030E04AE754E469817A81A0
:1022B0008B819C816DD1DC01CB018A879B87AC87A8
:1022C000BD8720E030E04AEF54E46A857B858C8549
:1022D0009D856BD2DC01CB018E879F87A88BB98B44
:1022E00020E030E040E85FE36E857F85888999894A
:1022F0004BD188232CF481E090E09B8B8A8B3BC0F0
:1023000020E03FEF4FE757E46E857F858889998904
:1023100048D218163CF520E030E040E251E46A85EE
:102320007B858C859D8541D2DC01CB01BC01CD0133
:1023300097D1DC01CB019B8B8A8B0FC088EC90E09E
:102340009D8B8C8B8C899D890197F1F79D8B8C8B54
:102350008A899B8901979B8B8A8B8A899B890097A5
:1023600069F722C06E857F858889998979D1DC01DA
:10237000CB019B8B8A8B8A899B899F8B8E8B8E89C5
:102380009F890197F1F79F8B8E8B0EC06D817E81A7
:102390008F81988565D1DC01CB0189878985888FFC
:1023A000888D8A95F1F7888F8FE290E0298DFC0166
:1023B000208300008EE290E0FC0180818095881FE0
:1023C0008827881F8823B1F78FE290E0FC01808185
:1023D00069960FB6F894DEBF0FBECDBFDF91CF91E7
:1023E0000895CF93DF93CDB7DEB72A970FB6F89451
:1023F000DEBF0FBECDBF6B837C838D839E8380E267
:1024000091EAA7E0B0E02B813C814D815E81BC0167
:10241000CD017ED0DA01C90101979A83898389E2CF
:1024200090E02981FC01208380E490E029813A81B9
:10243000232F3327FC01208380E490E026E8FC0171
:1024400020838AE290E028E1FC0120832A960FB6DF
:10245000F894DEBF0FBECDBFDF91CF910895CF932B
:10246000DF931F92CDB7DEB7898300008BE290E047
:10247000FC018081882F90E08072992721E00097ED
:1024800009F020E0222391F78CE290E02981FC0101
:1024900020830F90DF91CF910895CF93DF9300D0E9
:1024A0001F92CDB7DEB79B838A8319820DC08981C5
:1024B000882F90E02A813B81820F931FFC0180814D
:1024C000CEDF89818F5F89838981882F90E02A817F
:1024D0003B81820F931FFC018081882341F70F907D
:1024E0000F900F90DF91CF91089597FB072E16F470
:1024F000009406D077FD08D02DD007FC05D03EF41F
:10250000909581959F4F0895709561957F4F08959F
:10251000A1E21A2EAA1BBB1BFD010DC0AA1FBB1FE7
:10252000EE1FFF1FA217B307E407F50720F0A21B59
:10253000B30BE40BF50B661F771F881F991F1A94C6
:1025400069F760957095809590959B01AC01BD01F0
:10255000CF010895AA1BBB1B51E107C0AA1FBB1FD7
:10256000A617B70710F0A61BB70B881F991F5A951F
:10257000A9F780959095BC01CD010895EE0FFF1F3E
:102580000590F491E02D099497D008F481E0089526
:102590000CD0CDC0C5D040F0BCD030F021F45F3FAE
:1025A00019F0AEC05111F7C0B1C0D2D098F3992341
:1025B000C9F35523B1F3951B550BBB27AA27621707
:1025C0007307840738F09F5F5F4F220F331F441F4C
:1025D000AA1FA9F333D00E2E3AF0E0E830D0915084
:1025E0005040E695001CCAF729D0FE2F27D0660F71
:1025F000771F881FBB1F261737074807AB07B0E8B0
:1026000009F0BB0B802DBF01FF2793585F4F2AF0C5
:102610009E3F510568F074C0BEC05F3FECF3983E2A
:10262000DCF3869577956795B795F7959F5FC9F722
:10263000880F911D9695879597F90895E1E0660FAB
:10264000771F881FBB1F621773078407BA0720F024
:10265000621B730B840BBA0BEE1F88F7E09508958D
:102660007FD088F09F5790F0B92F9927B751A0F0ED
:10267000D1F0660F771F881F991F1AF0BA95C9F716
:1026800012C0B13081F086D0B1E0089583C0672FC9
:10269000782F8827B85F39F0B93FCCF386957795C6
:1026A0006795B395D9F73EF49095809570956195AF
:1026B0007F4F8F4F9F4F0895990F0008550FAA0B1A
:1026C000E0E8FEEF16161706E807F907C0F0121645
:1026D0001306E407F50798F0621B730B840B950B48
:1026E00039F40A2661F0232B242B252B21F408959D
:1026F0000A2609F4A140A6958FEF811D811D08953A
:1027000097F99F6780E870E060E008959FEF80ECA4
:10271000089500240A941616170618060906089547
:1027200000240A9412161306140605060895092EAD
:102730000394000C11F4882352F0BB0F40F4BF2B1C
:1027400011F460FF04C06F5F7F4F8F4F9F4F08955C
:1027500057FD9058440F551F59F05F3F71F0479552
:10276000880F97FB991F61F09F3F79F08795089537
:10277000121613061406551FF2CF4695F1DF08C056
:10278000161617061806991FF1CF86957105610573
:1027900008940895E894BB2766277727CB0197F91B
:1027A00008958ADF08F48FEF08950BD0C0CFB1DF12
:1027B00028F0B6DF18F0952309F0A2CFA7CF112497
:1027C000EACFC6DFA0F3959FD1F3950F50E0551FD8
:1027D000629FF001729FBB27F00DB11D639FAA2776
:1027E000F00DB11DAA1F649F6627B00DA11D661FC5
:1027F000829F2227B00DA11D621F739FB00DA11DE6
:10280000621F839FA00D611D221F749F3327A00D9F
:10281000611D231F849F600D211D822F762F6A2F3B
:1028200011249F5750408AF0E1F088234AF0EE0FC0
:10283000FF1FBB1F661F771F881F91505040A9F7CD
:102840009E3F510570F05CCFA6CF5F3FECF3983E02
:10285000DCF3869577956795B795F795E7959F5F34
:10286000C1F7FE2B880F911D9695879597F90895CE
:04287000F894FFCF0A
:1028740053544F5000496E746572727570742041E0
:102884007272697665640D0A0073656E644D7367D0
:10289400427566207375636365737366756C0D0AA0
:1028A4000073656E644D736742756620756E73754B
:1028B400636365737366756C0D0A00535441525417
:1028C4000053544152542056454849434C45200D29
:1028D4000A00427574746F6E2050726573732075AC
:1028E4006E7375636365737366756C0D0A00546566
:1028F4006D70657261747572650043414E20626546
:1029040067696E200D0A00696E6974203A20537558
:10291400636365737366756C0D0A00696E69742070
:102924003A20756E5375636365737366756C6C0DCD
:102934000A0043414E20626567696E20656E6465D6
:1029440064200D0A000D0A74656D702073656E6451
:102954004D7367427566207375636365737366753B
:102964006C0D0A0073656E644D736742756620755D
:102974006E7375636365737366756C200D0A000D61
:022984000A0047
:00000001FF
